{
  "transactions": [
    {
      "hash": "0xd3572d850ff22c9c68d4f0a41d304911199cd1d4ec084f0a5eada91ade047a16",
      "transactionType": "CALL",
      "contractName": null,
      "contractAddress": "0xa9a4920e504206eedef4bc68805d6628ca0a989d",
      "function": "grantRole(bytes32,address)",
      "arguments": [
        "0x591fa5458fe051cc8c02c405479bd38e00713c98dbd3db209d982048f1e638fa",
        "0xF58B9EA0B8F3BA250287fb517324660a849839C9"
      ],
      "transaction": {
        "from": "0xbaea889a5a23bb10ff98ad294cf65661ef716773",
        "to": "0xa9a4920e504206eedef4bc68805d6628ca0a989d",
        "gas": "0x9dc1",
        "value": "0x0",
        "input": "0x2f2ff15d591fa5458fe051cc8c02c405479bd38e00713c98dbd3db209d982048f1e638fa000000000000000000000000f58b9ea0b8f3ba250287fb517324660a849839c9",
        "nonce": "0x3e",
        "chainId": "0x13882"
      },
      "additionalContracts": [],
      "isFixedGasLimit": false
    },
    {
      "hash": "0x05ac36d393ec72350d482997eeee89b1281d28b9fdfa974dbd3fd27dc77ee13f",
      "transactionType": "CALL",
      "contractName": null,
      "contractAddress": "0xa9a4920e504206eedef4bc68805d6628ca0a989d",
      "function": "grantRole(bytes32,address)",
      "arguments": [
        "0x591fa5458fe051cc8c02c405479bd38e00713c98dbd3db209d982048f1e638fa",
        "0xd9480E53C0E3BB18ea86f0F059E141d0C2d509B7"
      ],
      "transaction": {
        "from": "0xbaea889a5a23bb10ff98ad294cf65661ef716773",
        "to": "0xa9a4920e504206eedef4bc68805d6628ca0a989d",
        "gas": "0x9dc1",
        "value": "0x0",
        "input": "0x2f2ff15d591fa5458fe051cc8c02c405479bd38e00713c98dbd3db209d982048f1e638fa000000000000000000000000d9480e53c0e3bb18ea86f0f059e141d0c2d509b7",
        "nonce": "0x3f",
        "chainId": "0x13882"
      },
      "additionalContracts": [],
      "isFixedGasLimit": false
    }
  ],
  "receipts": [
    {
      "status": "0x1",
      "cumulativeGasUsed": "0xd573",
      "logs": [
        {
          "address": "0x0000000000000000000000000000000000001010",
          "topics": [
            "0x4dfe1bbbcf077ddc3e01291eea2d5c70c2b422b415d95645b9adcfd678cb1d63",
            "0x0000000000000000000000000000000000000000000000000000000000001010",
            "0x000000000000000000000000baea889a5a23bb10ff98ad294cf65661ef716773",
            "0x0000000000000000000000007ee41d8a25641000661b1ef5e6ae8a00400466b0"
          ],
          "data": "0x0000000000000000000000000000000000000000000000000002db4cb7d89089000000000000000000000000000000000000000000000038d16620413e8db981000000000000000000000000000000000000000000000d9c85baf5785230b789000000000000000000000000000000000000000000000038d16344f486b528f8000000000000000000000000000000000000000000000d9c85bdd0c50a094812",
          "blockHash": "0xadca13e43bc1e4a597302cf213f3e3cfe2359541890042ee3b282421098b30c8",
          "blockNumber": "0x1bca459",
          "blockTimestamp": "0x691a6783",
          "transactionHash": "0xd3572d850ff22c9c68d4f0a41d304911199cd1d4ec084f0a5eada91ade047a16",
          "transactionIndex": "0x1",
          "logIndex": "0x2",
          "removed": false
        }
      ],
      "logsBloom": "0x00000000000000000000000000000000000000000000000000000000000000000000000000000000000000000000000000008000000000000000000000000000000000000000000000000000000000802000000000000000000100000000000000000000000000000000000000000000000000000000000080000000000000000000000000000000020000000400000000000000000000100000040000000000200000000000000000000000000000000000000000000000000000000000004000000000000000000001000000000000000000400000000000100000000000000000000000000000000000000000000000000000000000000000000000100000",
      "type": "0x2",
      "transactionHash": "0xd3572d850ff22c9c68d4f0a41d304911199cd1d4ec084f0a5eada91ade047a16",
      "transactionIndex": "0x1",
      "blockHash": "0xadca13e43bc1e4a597302cf213f3e3cfe2359541890042ee3b282421098b30c8",
      "blockNumber": "0x1bca459",
      "gasUsed": "0x7237",
      "effectiveGasPrice": "0x66720b37e",
      "from": "0xbaea889a5a23bb10ff98ad294cf65661ef716773",
      "to": "0xa9a4920e504206eedef4bc68805d6628ca0a989d",
      "contractAddress": null
    },
    {
      "status": "0x1",
      "cumulativeGasUsed": "0x147aa",
      "logs": [
        {
          "address": "0x0000000000000000000000000000000000001010",
          "topics": [
            "0x4dfe1bbbcf077ddc3e01291eea2d5c70c2b422b415d95645b9adcfd678cb1d63",
            "0x0000000000000000000000000000000000000000000000000000000000001010",
            "0x000000000000000000000000baea889a5a23bb10ff98ad294cf65661ef716773",
            "0x0000000000000000000000007ee41d8a25641000661b1ef5e6ae8a00400466b0"
          ],
          "data": "0x0000000000000000000000000000000000000000000000000002db4cb7d89089000000000000000000000000000000000000000000000038d16344f486990d6f000000000000000000000000000000000000000000000d9c85bdd0c50a094812000000000000000000000000000000000000000000000038d16069a7cec07ce6000000000000000000000000000000000000000000000d9c85c0ac11c1e1d89b",
          "blockHash": "0xadca13e43bc1e4a597302cf213f3e3cfe2359541890042ee3b282421098b30c8",
          "blockNumber": "0x1bca459",
          "blockTimestamp": "0x691a6783",
          "transactionHash": "0x05ac36d393ec72350d482997eeee89b1281d28b9fdfa974dbd3fd27dc77ee13f",
          "transactionIndex": "0x2",
          "logIndex": "0x3",
          "removed": false
        }
      ],
      "logsBloom": "0x00000000000000000000000000000000000000000000000000000000000000000000000000000000000000000000000000008000000000000000000000000000000000000000000000000000000000802000000000000000000100000000000000000000000000000000000000000000000000000000000080000000000000000000000000000000020000000400000000000000000000100000040000000000200000000000000000000000000000000000000000000000000000000000004000000000000000000001000000000000000000400000000000100000000000000000000000000000000000000000000000000000000000000000000000100000",
      "type": "0x2",
      "transactionHash": "0x05ac36d393ec72350d482997eeee89b1281d28b9fdfa974dbd3fd27dc77ee13f",
      "transactionIndex": "0x2",
      "blockHash": "0xadca13e43bc1e4a597302cf213f3e3cfe2359541890042ee3b282421098b30c8",
      "blockNumber": "0x1bca459",
      "gasUsed": "0x7237",
      "effectiveGasPrice": "0x66720b37e",
      "from": "0xbaea889a5a23bb10ff98ad294cf65661ef716773",
      "to": "0xa9a4920e504206eedef4bc68805d6628ca0a989d",
      "contractAddress": null
    }
  ],
  "libraries": [],
  "pending": [],
  "returns": {},
  "timestamp": 1763338115586,
  "chain": 80002,
  "commit": null
}