{
  "transactions": [
    {
      "hash": "0xb8a9bb5f1b99a2f61cb4e2ad6b1f3e50d38238d380b038131248fe44e230cc49",
      "transactionType": "CALL",
      "contractName": null,
      "contractAddress": "0xa9a4920e504206eedef4bc68805d6628ca0a989d",
      "function": "grantRole(bytes32,address)",
      "arguments": [
        "0x591fa5458fe051cc8c02c405479bd38e00713c98dbd3db209d982048f1e638fa",
        "0xF58B9EA0B8F3BA250287fb517324660a849839C9"
      ],
      "transaction": {
        "from": "0xbaea889a5a23bb10ff98ad294cf65661ef716773",
        "to": "0xa9a4920e504206eedef4bc68805d6628ca0a989d",
        "gas": "0x115c0",
        "value": "0x0",
        "input": "0x2f2ff15d591fa5458fe051cc8c02c405479bd38e00713c98dbd3db209d982048f1e638fa000000000000000000000000f58b9ea0b8f3ba250287fb517324660a849839c9",
        "nonce": "0x3b",
        "chainId": "0x13882"
      },
      "additionalContracts": [],
      "isFixedGasLimit": false
    },
    {
      "hash": "0xfa654068dd1c85b17ca69da7a19db6b524c545dc4d1242314c1260361ee70881",
      "transactionType": "CALL",
      "contractName": null,
      "contractAddress": "0xa9a4920e504206eedef4bc68805d6628ca0a989d",
      "function": "grantRole(bytes32,address)",
      "arguments": [
        "0x591fa5458fe051cc8c02c405479bd38e00713c98dbd3db209d982048f1e638fa",
        "0xd9480E53C0E3BB18ea86f0F059E141d0C2d509B7"
      ],
      "transaction": {
        "from": "0xbaea889a5a23bb10ff98ad294cf65661ef716773",
        "to": "0xa9a4920e504206eedef4bc68805d6628ca0a989d",
        "gas": "0x115c0",
        "value": "0x0",
        "input": "0x2f2ff15d591fa5458fe051cc8c02c405479bd38e00713c98dbd3db209d982048f1e638fa000000000000000000000000d9480e53c0e3bb18ea86f0f059e141d0c2d509b7",
        "nonce": "0x3c",
        "chainId": "0x13882"
      },
      "additionalContracts": [],
      "isFixedGasLimit": false
    }
  ],
  "receipts": [
    {
      "status": "0x1",
      "cumulativeGasUsed": "0xc917",
      "logs": [
        {
          "address": "0xa9a4920e504206eedef4bc68805d6628ca0a989d",
          "topics": [
            "0x2f8788117e7eff1d82e926ec794901d17c78024a50270940304540a733656f0d",
            "0x591fa5458fe051cc8c02c405479bd38e00713c98dbd3db209d982048f1e638fa",
            "0x000000000000000000000000f58b9ea0b8f3ba250287fb517324660a849839c9",
            "0x000000000000000000000000baea889a5a23bb10ff98ad294cf65661ef716773"
          ],
          "data": "0x",
          "blockHash": "0xbbaf6fc0c2316633b882ebd5c70d1d773d91e3a9b0861727e685d4957516350a",
          "blockNumber": "0x1bc1e1d",
          "blockTimestamp": "0x69195b0b",
          "transactionHash": "0xb8a9bb5f1b99a2f61cb4e2ad6b1f3e50d38238d380b038131248fe44e230cc49",
          "transactionIndex": "0x0",
          "logIndex": "0x0",
          "removed": false
        },
        {
          "address": "0x0000000000000000000000000000000000001010",
          "topics": [
            "0x4dfe1bbbcf077ddc3e01291eea2d5c70c2b422b415d95645b9adcfd678cb1d63",
            "0x0000000000000000000000000000000000000000000000000000000000001010",
            "0x000000000000000000000000baea889a5a23bb10ff98ad294cf65661ef716773",
            "0x0000000000000000000000007ee41d8a25641000661b1ef5e6ae8a00400466b0"
          ],
          "data": "0x000000000000000000000000000000000000000000000000000a0f17e0dd0720000000000000000000000000000000000000000000000038ed3d9229c425860b000000000000000000000000000000000000000000000d8e1d08937125c43ff4000000000000000000000000000000000000000000000038ed338311e3487eeb000000000000000000000000000000000000000000000d8e1d12a28906a14714",
          "blockHash": "0xbbaf6fc0c2316633b882ebd5c70d1d773d91e3a9b0861727e685d4957516350a",
          "blockNumber": "0x1bc1e1d",
          "blockTimestamp": "0x69195b0b",
          "transactionHash": "0xb8a9bb5f1b99a2f61cb4e2ad6b1f3e50d38238d380b038131248fe44e230cc49",
          "transactionIndex": "0x0",
          "logIndex": "0x1",
          "removed": false
        }
      ],
      "logsBloom": "0x00000004000000000000000000000000000000200000000000000000000000000000000000400000000000000000000000008000000000000000000000000000000000000000000000000000000000802000000000000000000100000000000000000000000000000010000000000000000000000000000080000000000000000010000000000000020000000400000000000000000000100000040000000000200000000000000000000000000000000000000000000000001400000000004000000000000000000001000000000000000000400000000100100000000000000000000000200000000000000000000040000000000100000200000000100000",
      "type": "0x2",
      "transactionHash": "0xb8a9bb5f1b99a2f61cb4e2ad6b1f3e50d38238d380b038131248fe44e230cc49",
      "transactionIndex": "0x0",
      "blockHash": "0xbbaf6fc0c2316633b882ebd5c70d1d773d91e3a9b0861727e685d4957516350a",
      "blockNumber": "0x1bc1e1d",
      "gasUsed": "0xc917",
      "effectiveGasPrice": "0xcce41661f",
      "from": "0xbaea889a5a23bb10ff98ad294cf65661ef716773",
      "to": "0xa9a4920e504206eedef4bc68805d6628ca0a989d",
      "contractAddress": null
    },
    {
      "status": "0x1",
      "cumulativeGasUsed": "0x1922e",
      "logs": [
        {
          "address": "0xa9a4920e504206eedef4bc68805d6628ca0a989d",
          "topics": [
            "0x2f8788117e7eff1d82e926ec794901d17c78024a50270940304540a733656f0d",
            "0x591fa5458fe051cc8c02c405479bd38e00713c98dbd3db209d982048f1e638fa",
            "0x000000000000000000000000d9480e53c0e3bb18ea86f0f059e141d0c2d509b7",
            "0x000000000000000000000000baea889a5a23bb10ff98ad294cf65661ef716773"
          ],
          "data": "0x",
          "blockHash": "0xbbaf6fc0c2316633b882ebd5c70d1d773d91e3a9b0861727e685d4957516350a",
          "blockNumber": "0x1bc1e1d",
          "blockTimestamp": "0x69195b0b",
          "transactionHash": "0xfa654068dd1c85b17ca69da7a19db6b524c545dc4d1242314c1260361ee70881",
          "transactionIndex": "0x1",
          "logIndex": "0x2",
          "removed": false
        },
        {
          "address": "0x0000000000000000000000000000000000001010",
          "topics": [
            "0x4dfe1bbbcf077ddc3e01291eea2d5c70c2b422b415d95645b9adcfd678cb1d63",
            "0x0000000000000000000000000000000000000000000000000000000000001010",
            "0x000000000000000000000000baea889a5a23bb10ff98ad294cf65661ef716773",
            "0x0000000000000000000000007ee41d8a25641000661b1ef5e6ae8a00400466b0"
          ],
          "data": "0x000000000000000000000000000000000000000000000000000a0f17e0dd0720000000000000000000000000000000000000000000000038ed338311e3170242000000000000000000000000000000000000000000000d8e1d12a28906a14714000000000000000000000000000000000000000000000038ed2973fa0239fb22000000000000000000000000000000000000000000000d8e1d1cb1a0e77e4e34",
          "blockHash": "0xbbaf6fc0c2316633b882ebd5c70d1d773d91e3a9b0861727e685d4957516350a",
          "blockNumber": "0x1bc1e1d",
          "blockTimestamp": "0x69195b0b",
          "transactionHash": "0xfa654068dd1c85b17ca69da7a19db6b524c545dc4d1242314c1260361ee70881",
          "transactionIndex": "0x1",
          "logIndex": "0x3",
          "removed": false
        }
      ],
      "logsBloom": "0x00000004000000000000000000000000000000200000000000000000000000000000000000400000000000000000000000008000000000000000000000000000000000000000000000000000000000802000000000000000000100000000000000000000000000000000000000000040000000000000000080000000000000000000000000000000020000000400000000000000000000100200040000100000200000000000000000000000000000000000000000000000001000000000004000000000000000000001000000000000000000400000000100100000000000000000000000200000000000000000000040000000000100000200000000100000",
      "type": "0x2",
      "transactionHash": "0xfa654068dd1c85b17ca69da7a19db6b524c545dc4d1242314c1260361ee70881",
      "transactionIndex": "0x1",
      "blockHash": "0xbbaf6fc0c2316633b882ebd5c70d1d773d91e3a9b0861727e685d4957516350a",
      "blockNumber": "0x1bc1e1d",
      "gasUsed": "0xc917",
      "effectiveGasPrice": "0xcce41661f",
      "from": "0xbaea889a5a23bb10ff98ad294cf65661ef716773",
      "to": "0xa9a4920e504206eedef4bc68805d6628ca0a989d",
      "contractAddress": null
    }
  ],
  "libraries": [],
  "pending": [],
  "returns": {},
  "timestamp": 1763269387986,
  "chain": 80002,
  "commit": null
}